{
	"giricoins.ico.sol": {
		"giricoin_ico": {
			"abi": [
				{
					"constant": true,
					"inputs": [
						{
							"name": "investor",
							"type": "address"
						}
					],
					"name": "equity_in_usd",
					"outputs": [],
					"payable": false,
					"stateMutability": "view",
					"type": "function"
				},
				{
					"constant": false,
					"inputs": [
						{
							"name": "investor",
							"type": "address"
						},
						{
							"name": "usd_invested",
							"type": "uint256"
						}
					],
					"name": "buy_giricoins",
					"outputs": [],
					"payable": false,
					"stateMutability": "nonpayable",
					"type": "function"
				},
				{
					"constant": true,
					"inputs": [],
					"name": "usd_to_giricoins",
					"outputs": [
						{
							"name": "",
							"type": "uint256"
						}
					],
					"payable": false,
					"stateMutability": "view",
					"type": "function"
				},
				{
					"constant": false,
					"inputs": [
						{
							"name": "investor",
							"type": "address"
						},
						{
							"name": "giricoin_sold",
							"type": "uint256"
						}
					],
					"name": "sell_giricoins",
					"outputs": [],
					"payable": false,
					"stateMutability": "nonpayable",
					"type": "function"
				},
				{
					"constant": true,
					"inputs": [
						{
							"name": "investor",
							"type": "address"
						}
					],
					"name": "equity_in_giricoins",
					"outputs": [],
					"payable": false,
					"stateMutability": "view",
					"type": "function"
				},
				{
					"constant": true,
					"inputs": [],
					"name": "total_giricois_bought",
					"outputs": [
						{
							"name": "",
							"type": "uint256"
						}
					],
					"payable": false,
					"stateMutability": "view",
					"type": "function"
				},
				{
					"constant": true,
					"inputs": [],
					"name": "max_giricoins",
					"outputs": [
						{
							"name": "",
							"type": "uint256"
						}
					],
					"payable": false,
					"stateMutability": "view",
					"type": "function"
				}
			],
			"devdoc": {
				"methods": {}
			},
			"evm": {
				"assembly": "    /* \"giricoins.ico.sol\":67:1782  contract giricoin_ico {... */\n  mstore(0x40, 0x80)\n    /* \"giricoins.ico.sol\":193:200  1000000 */\n  0xf4240\n    /* \"giricoins.ico.sol\":165:200  uint public max_giricoins = 1000000 */\n  0x0\n  sstore\n    /* \"giricoins.ico.sol\":294:298  1000 */\n  0x3e8\n    /* \"giricoins.ico.sol\":263:298  uint public usd_to_giricoins = 1000 */\n  0x1\n  sstore\n    /* \"giricoins.ico.sol\":429:430  0 */\n  0x0\n    /* \"giricoins.ico.sol\":393:430  uint public total_giricois_bought = 0 */\n  0x2\n  sstore\n    /* \"giricoins.ico.sol\":67:1782  contract giricoin_ico {... */\n  callvalue\n    /* \"--CODEGEN--\":8:17   */\n  dup1\n    /* \"--CODEGEN--\":5:7   */\n  iszero\n  tag_1\n  jumpi\n    /* \"--CODEGEN--\":30:31   */\n  0x0\n    /* \"--CODEGEN--\":27:28   */\n  dup1\n    /* \"--CODEGEN--\":20:32   */\n  revert\n    /* \"--CODEGEN--\":5:7   */\ntag_1:\n    /* \"giricoins.ico.sol\":67:1782  contract giricoin_ico {... */\n  pop\n  dataSize(sub_0)\n  dup1\n  dataOffset(sub_0)\n  0x0\n  codecopy\n  0x0\n  return\nstop\n\nsub_0: assembly {\n        /* \"giricoins.ico.sol\":67:1782  contract giricoin_ico {... */\n      mstore(0x40, 0x80)\n      jumpi(tag_1, lt(calldatasize, 0x4))\n      calldataload(0x0)\n      0x100000000000000000000000000000000000000000000000000000000\n      swap1\n      div\n      0xffffffff\n      and\n      dup1\n      0x10c51c1b\n      eq\n      tag_2\n      jumpi\n      dup1\n      0x135facc1\n      eq\n      tag_3\n      jumpi\n      dup1\n      0x17c2d59c\n      eq\n      tag_4\n      jumpi\n      dup1\n      0x7600d833\n      eq\n      tag_5\n      jumpi\n      dup1\n      0xc83b9ab0\n      eq\n      tag_6\n      jumpi\n      dup1\n      0xf0e1a1c1\n      eq\n      tag_7\n      jumpi\n      dup1\n      0xfc627f77\n      eq\n      tag_8\n      jumpi\n    tag_1:\n      0x0\n      dup1\n      revert\n        /* \"giricoins.ico.sol\":1027:1123  function equity_in_usd(address investor) external constant {... */\n    tag_2:\n      callvalue\n        /* \"--CODEGEN--\":8:17   */\n      dup1\n        /* \"--CODEGEN--\":5:7   */\n      iszero\n      tag_9\n      jumpi\n        /* \"--CODEGEN--\":30:31   */\n      0x0\n        /* \"--CODEGEN--\":27:28   */\n      dup1\n        /* \"--CODEGEN--\":20:32   */\n      revert\n        /* \"--CODEGEN--\":5:7   */\n    tag_9:\n        /* \"giricoins.ico.sol\":1027:1123  function equity_in_usd(address investor) external constant {... */\n      pop\n      tag_10\n      0x4\n      dup1\n      calldatasize\n      sub\n      dup2\n      add\n      swap1\n      dup1\n      dup1\n      calldataload\n      0xffffffffffffffffffffffffffffffffffffffff\n      and\n      swap1\n      0x20\n      add\n      swap1\n      swap3\n      swap2\n      swap1\n      pop\n      pop\n      pop\n      jump(tag_11)\n    tag_10:\n      stop\n        /* \"giricoins.ico.sol\":1153:1503  function buy_giricoins(address investor, uint usd_invested) external... */\n    tag_3:\n      callvalue\n        /* \"--CODEGEN--\":8:17   */\n      dup1\n        /* \"--CODEGEN--\":5:7   */\n      iszero\n      tag_12\n      jumpi\n        /* \"--CODEGEN--\":30:31   */\n      0x0\n        /* \"--CODEGEN--\":27:28   */\n      dup1\n        /* \"--CODEGEN--\":20:32   */\n      revert\n        /* \"--CODEGEN--\":5:7   */\n    tag_12:\n        /* \"giricoins.ico.sol\":1153:1503  function buy_giricoins(address investor, uint usd_invested) external... */\n      pop\n      tag_13\n      0x4\n      dup1\n      calldatasize\n      sub\n      dup2\n      add\n      swap1\n      dup1\n      dup1\n      calldataload\n      0xffffffffffffffffffffffffffffffffffffffff\n      and\n      swap1\n      0x20\n      add\n      swap1\n      swap3\n      swap2\n      swap1\n      dup1\n      calldataload\n      swap1\n      0x20\n      add\n      swap1\n      swap3\n      swap2\n      swap1\n      pop\n      pop\n      pop\n      jump(tag_14)\n    tag_13:\n      stop\n        /* \"giricoins.ico.sol\":263:298  uint public usd_to_giricoins = 1000 */\n    tag_4:\n      callvalue\n        /* \"--CODEGEN--\":8:17   */\n      dup1\n        /* \"--CODEGEN--\":5:7   */\n      iszero\n      tag_15\n      jumpi\n        /* \"--CODEGEN--\":30:31   */\n      0x0\n        /* \"--CODEGEN--\":27:28   */\n      dup1\n        /* \"--CODEGEN--\":20:32   */\n      revert\n        /* \"--CODEGEN--\":5:7   */\n    tag_15:\n        /* \"giricoins.ico.sol\":263:298  uint public usd_to_giricoins = 1000 */\n      pop\n      tag_16\n      jump(tag_17)\n    tag_16:\n      mload(0x40)\n      dup1\n      dup3\n      dup2\n      mstore\n      0x20\n      add\n      swap2\n      pop\n      pop\n      mload(0x40)\n      dup1\n      swap2\n      sub\n      swap1\n      return\n        /* \"giricoins.ico.sol\":1534:1779  function sell_giricoins(address investor, uint giricoin_sold) external {... */\n    tag_5:\n      callvalue\n        /* \"--CODEGEN--\":8:17   */\n      dup1\n        /* \"--CODEGEN--\":5:7   */\n      iszero\n      tag_18\n      jumpi\n        /* \"--CODEGEN--\":30:31   */\n      0x0\n        /* \"--CODEGEN--\":27:28   */\n      dup1\n        /* \"--CODEGEN--\":20:32   */\n      revert\n        /* \"--CODEGEN--\":5:7   */\n    tag_18:\n        /* \"giricoins.ico.sol\":1534:1779  function sell_giricoins(address investor, uint giricoin_sold) external {... */\n      pop\n      tag_19\n      0x4\n      dup1\n      calldatasize\n      sub\n      dup2\n      add\n      swap1\n      dup1\n      dup1\n      calldataload\n      0xffffffffffffffffffffffffffffffffffffffff\n      and\n      swap1\n      0x20\n      add\n      swap1\n      swap3\n      swap2\n      swap1\n      dup1\n      calldataload\n      swap1\n      0x20\n      add\n      swap1\n      swap3\n      swap2\n      swap1\n      pop\n      pop\n      pop\n      jump(tag_20)\n    tag_19:\n      stop\n        /* \"giricoins.ico.sol\":866:974  function equity_in_giricoins(address investor) external constant {... */\n    tag_6:\n      callvalue\n        /* \"--CODEGEN--\":8:17   */\n      dup1\n        /* \"--CODEGEN--\":5:7   */\n      iszero\n      tag_21\n      jumpi\n        /* \"--CODEGEN--\":30:31   */\n      0x0\n        /* \"--CODEGEN--\":27:28   */\n      dup1\n        /* \"--CODEGEN--\":20:32   */\n      revert\n        /* \"--CODEGEN--\":5:7   */\n    tag_21:\n        /* \"giricoins.ico.sol\":866:974  function equity_in_giricoins(address investor) external constant {... */\n      pop\n      tag_22\n      0x4\n      dup1\n      calldatasize\n      sub\n      dup2\n      add\n      swap1\n      dup1\n      dup1\n      calldataload\n      0xffffffffffffffffffffffffffffffffffffffff\n      and\n      swap1\n      0x20\n      add\n      swap1\n      swap3\n      swap2\n      swap1\n      pop\n      pop\n      pop\n      jump(tag_23)\n    tag_22:\n      stop\n        /* \"giricoins.ico.sol\":393:430  uint public total_giricois_bought = 0 */\n    tag_7:\n      callvalue\n        /* \"--CODEGEN--\":8:17   */\n      dup1\n        /* \"--CODEGEN--\":5:7   */\n      iszero\n      tag_24\n      jumpi\n        /* \"--CODEGEN--\":30:31   */\n      0x0\n        /* \"--CODEGEN--\":27:28   */\n      dup1\n        /* \"--CODEGEN--\":20:32   */\n      revert\n        /* \"--CODEGEN--\":5:7   */\n    tag_24:\n        /* \"giricoins.ico.sol\":393:430  uint public total_giricois_bought = 0 */\n      pop\n      tag_25\n      jump(tag_26)\n    tag_25:\n      mload(0x40)\n      dup1\n      dup3\n      dup2\n      mstore\n      0x20\n      add\n      swap2\n      pop\n      pop\n      mload(0x40)\n      dup1\n      swap2\n      sub\n      swap1\n      return\n        /* \"giricoins.ico.sol\":165:200  uint public max_giricoins = 1000000 */\n    tag_8:\n      callvalue\n        /* \"--CODEGEN--\":8:17   */\n      dup1\n        /* \"--CODEGEN--\":5:7   */\n      iszero\n      tag_27\n      jumpi\n        /* \"--CODEGEN--\":30:31   */\n      0x0\n        /* \"--CODEGEN--\":27:28   */\n      dup1\n        /* \"--CODEGEN--\":20:32   */\n      revert\n        /* \"--CODEGEN--\":5:7   */\n    tag_27:\n        /* \"giricoins.ico.sol\":165:200  uint public max_giricoins = 1000000 */\n      pop\n      tag_28\n      jump(tag_29)\n    tag_28:\n      mload(0x40)\n      dup1\n      dup3\n      dup2\n      mstore\n      0x20\n      add\n      swap2\n      pop\n      pop\n      mload(0x40)\n      dup1\n      swap2\n      sub\n      swap1\n      return\n        /* \"giricoins.ico.sol\":1027:1123  function equity_in_usd(address investor) external constant {... */\n    tag_11:\n        /* \"giricoins.ico.sol\":1096:1106  equity_usd */\n      0x4\n        /* \"giricoins.ico.sol\":1096:1116  equity_usd[investor] */\n      0x0\n        /* \"giricoins.ico.sol\":1107:1115  investor */\n      dup3\n        /* \"giricoins.ico.sol\":1096:1116  equity_usd[investor] */\n      0xffffffffffffffffffffffffffffffffffffffff\n      and\n      0xffffffffffffffffffffffffffffffffffffffff\n      and\n      dup2\n      mstore\n      0x20\n      add\n      swap1\n      dup2\n      mstore\n      0x20\n      add\n      0x0\n      keccak256\n      pop\n        /* \"giricoins.ico.sol\":1027:1123  function equity_in_usd(address investor) external constant {... */\n      pop\n      jump\t// out\n        /* \"giricoins.ico.sol\":1153:1503  function buy_giricoins(address investor, uint usd_invested) external... */\n    tag_14:\n        /* \"giricoins.ico.sol\":1268:1289  uint giricoins_bought */\n      0x0\n        /* \"giricoins.ico.sol\":1244:1256  usd_invested */\n      dup2\n        /* \"giricoins.ico.sol\":774:787  max_giricoins */\n      sload(0x0)\n        /* \"giricoins.ico.sol\":749:770  total_giricois_bought */\n      sload(0x2)\n        /* \"giricoins.ico.sol\":730:746  usd_to_giricoins */\n      sload(0x1)\n        /* \"giricoins.ico.sol\":715:727  usd_invested */\n      dup4\n        /* \"giricoins.ico.sol\":715:746  usd_invested * usd_to_giricoins */\n      mul\n        /* \"giricoins.ico.sol\":715:770  usd_invested * usd_to_giricoins + total_giricois_bought */\n      add\n        /* \"giricoins.ico.sol\":715:787  usd_invested * usd_to_giricoins + total_giricois_bought <= max_giricoins */\n      gt\n      iszero\n        /* \"giricoins.ico.sol\":706:788  require (usd_invested * usd_to_giricoins + total_giricois_bought <= max_giricoins) */\n      iszero\n      iszero\n      tag_32\n      jumpi\n      0x0\n      dup1\n      revert\n    tag_32:\n        /* \"giricoins.ico.sol\":1307:1323  usd_to_giricoins */\n      sload(0x1)\n        /* \"giricoins.ico.sol\":1292:1304  usd_invested */\n      dup4\n        /* \"giricoins.ico.sol\":1292:1323  usd_invested * usd_to_giricoins */\n      mul\n        /* \"giricoins.ico.sol\":1268:1323  uint giricoins_bought = usd_invested * usd_to_giricoins */\n      swap2\n      pop\n        /* \"giricoins.ico.sol\":1363:1379  giricoins_bought */\n      dup2\n        /* \"giricoins.ico.sol\":1333:1349  equity_giricoins */\n      0x3\n        /* \"giricoins.ico.sol\":1333:1359  equity_giricoins[investor] */\n      0x0\n        /* \"giricoins.ico.sol\":1350:1358  investor */\n      dup7\n        /* \"giricoins.ico.sol\":1333:1359  equity_giricoins[investor] */\n      0xffffffffffffffffffffffffffffffffffffffff\n      and\n      0xffffffffffffffffffffffffffffffffffffffff\n      and\n      dup2\n      mstore\n      0x20\n      add\n      swap1\n      dup2\n      mstore\n      0x20\n      add\n      0x0\n      keccak256\n      0x0\n        /* \"giricoins.ico.sol\":1333:1379  equity_giricoins[investor] += giricoins_bought */\n      dup3\n      dup3\n      sload\n      add\n      swap3\n      pop\n      pop\n      dup2\n      swap1\n      sstore\n      pop\n        /* \"giricoins.ico.sol\":1441:1445  1000 */\n      0x3e8\n        /* \"giricoins.ico.sol\":1412:1428  equity_giricoins */\n      0x3\n        /* \"giricoins.ico.sol\":1412:1438  equity_giricoins[investor] */\n      0x0\n        /* \"giricoins.ico.sol\":1429:1437  investor */\n      dup7\n        /* \"giricoins.ico.sol\":1412:1438  equity_giricoins[investor] */\n      0xffffffffffffffffffffffffffffffffffffffff\n      and\n      0xffffffffffffffffffffffffffffffffffffffff\n      and\n      dup2\n      mstore\n      0x20\n      add\n      swap1\n      dup2\n      mstore\n      0x20\n      add\n      0x0\n      keccak256\n      sload\n        /* \"giricoins.ico.sol\":1412:1445  equity_giricoins[investor] / 1000 */\n      dup2\n      iszero\n      iszero\n      tag_34\n      jumpi\n      invalid\n    tag_34:\n      div\n        /* \"giricoins.ico.sol\":1389:1399  equity_usd */\n      0x4\n        /* \"giricoins.ico.sol\":1389:1409  equity_usd[investor] */\n      0x0\n        /* \"giricoins.ico.sol\":1400:1408  investor */\n      dup7\n        /* \"giricoins.ico.sol\":1389:1409  equity_usd[investor] */\n      0xffffffffffffffffffffffffffffffffffffffff\n      and\n      0xffffffffffffffffffffffffffffffffffffffff\n      and\n      dup2\n      mstore\n      0x20\n      add\n      swap1\n      dup2\n      mstore\n      0x20\n      add\n      0x0\n      keccak256\n        /* \"giricoins.ico.sol\":1389:1445  equity_usd[investor] = equity_giricoins[investor] / 1000 */\n      dup2\n      swap1\n      sstore\n      pop\n        /* \"giricoins.ico.sol\":1480:1496  giricoins_bought */\n      dup2\n        /* \"giricoins.ico.sol\":1455:1476  total_giricois_bought */\n      0x2\n      0x0\n        /* \"giricoins.ico.sol\":1455:1496  total_giricois_bought += giricoins_bought */\n      dup3\n      dup3\n      sload\n      add\n      swap3\n      pop\n      pop\n      dup2\n      swap1\n      sstore\n      pop\n        /* \"giricoins.ico.sol\":1153:1503  function buy_giricoins(address investor, uint usd_invested) external... */\n      pop\n      pop\n      pop\n      pop\n      jump\t// out\n        /* \"giricoins.ico.sol\":263:298  uint public usd_to_giricoins = 1000 */\n    tag_17:\n      sload(0x1)\n      dup2\n      jump\t// out\n        /* \"giricoins.ico.sol\":1534:1779  function sell_giricoins(address investor, uint giricoin_sold) external {... */\n    tag_20:\n        /* \"giricoins.ico.sol\":1645:1658  giricoin_sold */\n      dup1\n        /* \"giricoins.ico.sol\":1615:1631  equity_giricoins */\n      0x3\n        /* \"giricoins.ico.sol\":1615:1641  equity_giricoins[investor] */\n      0x0\n        /* \"giricoins.ico.sol\":1632:1640  investor */\n      dup5\n        /* \"giricoins.ico.sol\":1615:1641  equity_giricoins[investor] */\n      0xffffffffffffffffffffffffffffffffffffffff\n      and\n      0xffffffffffffffffffffffffffffffffffffffff\n      and\n      dup2\n      mstore\n      0x20\n      add\n      swap1\n      dup2\n      mstore\n      0x20\n      add\n      0x0\n      keccak256\n      0x0\n        /* \"giricoins.ico.sol\":1615:1658  equity_giricoins[investor] -= giricoin_sold */\n      dup3\n      dup3\n      sload\n      sub\n      swap3\n      pop\n      pop\n      dup2\n      swap1\n      sstore\n      pop\n        /* \"giricoins.ico.sol\":1720:1724  1000 */\n      0x3e8\n        /* \"giricoins.ico.sol\":1691:1707  equity_giricoins */\n      0x3\n        /* \"giricoins.ico.sol\":1691:1717  equity_giricoins[investor] */\n      0x0\n        /* \"giricoins.ico.sol\":1708:1716  investor */\n      dup5\n        /* \"giricoins.ico.sol\":1691:1717  equity_giricoins[investor] */\n      0xffffffffffffffffffffffffffffffffffffffff\n      and\n      0xffffffffffffffffffffffffffffffffffffffff\n      and\n      dup2\n      mstore\n      0x20\n      add\n      swap1\n      dup2\n      mstore\n      0x20\n      add\n      0x0\n      keccak256\n      sload\n        /* \"giricoins.ico.sol\":1691:1724  equity_giricoins[investor] / 1000 */\n      dup2\n      iszero\n      iszero\n      tag_36\n      jumpi\n      invalid\n    tag_36:\n      div\n        /* \"giricoins.ico.sol\":1668:1678  equity_usd */\n      0x4\n        /* \"giricoins.ico.sol\":1668:1688  equity_usd[investor] */\n      0x0\n        /* \"giricoins.ico.sol\":1679:1687  investor */\n      dup5\n        /* \"giricoins.ico.sol\":1668:1688  equity_usd[investor] */\n      0xffffffffffffffffffffffffffffffffffffffff\n      and\n      0xffffffffffffffffffffffffffffffffffffffff\n      and\n      dup2\n      mstore\n      0x20\n      add\n      swap1\n      dup2\n      mstore\n      0x20\n      add\n      0x0\n      keccak256\n        /* \"giricoins.ico.sol\":1668:1724  equity_usd[investor] = equity_giricoins[investor] / 1000 */\n      dup2\n      swap1\n      sstore\n      pop\n        /* \"giricoins.ico.sol\":1759:1772  giricoin_sold */\n      dup1\n        /* \"giricoins.ico.sol\":1734:1755  total_giricois_bought */\n      0x2\n      0x0\n        /* \"giricoins.ico.sol\":1734:1772  total_giricois_bought -= giricoin_sold */\n      dup3\n      dup3\n      sload\n      sub\n      swap3\n      pop\n      pop\n      dup2\n      swap1\n      sstore\n      pop\n        /* \"giricoins.ico.sol\":1534:1779  function sell_giricoins(address investor, uint giricoin_sold) external {... */\n      pop\n      pop\n      jump\t// out\n        /* \"giricoins.ico.sol\":866:974  function equity_in_giricoins(address investor) external constant {... */\n    tag_23:\n        /* \"giricoins.ico.sol\":941:957  equity_giricoins */\n      0x3\n        /* \"giricoins.ico.sol\":941:967  equity_giricoins[investor] */\n      0x0\n        /* \"giricoins.ico.sol\":958:966  investor */\n      dup3\n        /* \"giricoins.ico.sol\":941:967  equity_giricoins[investor] */\n      0xffffffffffffffffffffffffffffffffffffffff\n      and\n      0xffffffffffffffffffffffffffffffffffffffff\n      and\n      dup2\n      mstore\n      0x20\n      add\n      swap1\n      dup2\n      mstore\n      0x20\n      add\n      0x0\n      keccak256\n      pop\n        /* \"giricoins.ico.sol\":866:974  function equity_in_giricoins(address investor) external constant {... */\n      pop\n      jump\t// out\n        /* \"giricoins.ico.sol\":393:430  uint public total_giricois_bought = 0 */\n    tag_26:\n      sload(0x2)\n      dup2\n      jump\t// out\n        /* \"giricoins.ico.sol\":165:200  uint public max_giricoins = 1000000 */\n    tag_29:\n      sload(0x0)\n      dup2\n      jump\t// out\n\n    auxdata: 0xa165627a7a72305820b48801c10c6f653b059b7aecbffe347b42ea92a13f2285e57bf7c17dc7a5cda00029\n}\n",
				"bytecode": {
					"linkReferences": {},
					"object": "6080604052620f42406000556103e8600155600060025534801561002257600080fd5b506104f4806100326000396000f300608060405260043610610083576000357c0100000000000000000000000000000000000000000000000000000000900463ffffffff16806310c51c1b14610088578063135facc1146100cb57806317c2d59c146101185780637600d83314610143578063c83b9ab014610190578063f0e1a1c1146101d3578063fc627f77146101fe575b600080fd5b34801561009457600080fd5b506100c9600480360381019080803573ffffffffffffffffffffffffffffffffffffffff169060200190929190505050610229565b005b3480156100d757600080fd5b50610116600480360381019080803573ffffffffffffffffffffffffffffffffffffffff1690602001909291908035906020019092919050505061026c565b005b34801561012457600080fd5b5061012d610382565b6040518082815260200191505060405180910390f35b34801561014f57600080fd5b5061018e600480360381019080803573ffffffffffffffffffffffffffffffffffffffff16906020019092919080359060200190929190505050610388565b005b34801561019c57600080fd5b506101d1600480360381019080803573ffffffffffffffffffffffffffffffffffffffff169060200190929190505050610479565b005b3480156101df57600080fd5b506101e86104bc565b6040518082815260200191505060405180910390f35b34801561020a57600080fd5b506102136104c2565b6040518082815260200191505060405180910390f35b600460008273ffffffffffffffffffffffffffffffffffffffff1673ffffffffffffffffffffffffffffffffffffffff1681526020019081526020016000205050565b6000816000546002546001548302011115151561028857600080fd5b6001548302915081600360008673ffffffffffffffffffffffffffffffffffffffff1673ffffffffffffffffffffffffffffffffffffffff168152602001908152602001600020600082825401925050819055506103e8600360008673ffffffffffffffffffffffffffffffffffffffff1673ffffffffffffffffffffffffffffffffffffffff1681526020019081526020016000205481151561032857fe5b04600460008673ffffffffffffffffffffffffffffffffffffffff1673ffffffffffffffffffffffffffffffffffffffff168152602001908152602001600020819055508160026000828254019250508190555050505050565b60015481565b80600360008473ffffffffffffffffffffffffffffffffffffffff1673ffffffffffffffffffffffffffffffffffffffff168152602001908152602001600020600082825403925050819055506103e8600360008473ffffffffffffffffffffffffffffffffffffffff1673ffffffffffffffffffffffffffffffffffffffff1681526020019081526020016000205481151561042157fe5b04600460008473ffffffffffffffffffffffffffffffffffffffff1673ffffffffffffffffffffffffffffffffffffffff16815260200190815260200160002081905550806002600082825403925050819055505050565b600360008273ffffffffffffffffffffffffffffffffffffffff1673ffffffffffffffffffffffffffffffffffffffff1681526020019081526020016000205050565b60025481565b600054815600a165627a7a72305820b48801c10c6f653b059b7aecbffe347b42ea92a13f2285e57bf7c17dc7a5cda00029",
					"opcodes": "PUSH1 0x80 PUSH1 0x40 MSTORE PUSH3 0xF4240 PUSH1 0x0 SSTORE PUSH2 0x3E8 PUSH1 0x1 SSTORE PUSH1 0x0 PUSH1 0x2 SSTORE CALLVALUE DUP1 ISZERO PUSH2 0x22 JUMPI PUSH1 0x0 DUP1 REVERT JUMPDEST POP PUSH2 0x4F4 DUP1 PUSH2 0x32 PUSH1 0x0 CODECOPY PUSH1 0x0 RETURN STOP PUSH1 0x80 PUSH1 0x40 MSTORE PUSH1 0x4 CALLDATASIZE LT PUSH2 0x83 JUMPI PUSH1 0x0 CALLDATALOAD PUSH29 0x100000000000000000000000000000000000000000000000000000000 SWAP1 DIV PUSH4 0xFFFFFFFF AND DUP1 PUSH4 0x10C51C1B EQ PUSH2 0x88 JUMPI DUP1 PUSH4 0x135FACC1 EQ PUSH2 0xCB JUMPI DUP1 PUSH4 0x17C2D59C EQ PUSH2 0x118 JUMPI DUP1 PUSH4 0x7600D833 EQ PUSH2 0x143 JUMPI DUP1 PUSH4 0xC83B9AB0 EQ PUSH2 0x190 JUMPI DUP1 PUSH4 0xF0E1A1C1 EQ PUSH2 0x1D3 JUMPI DUP1 PUSH4 0xFC627F77 EQ PUSH2 0x1FE JUMPI JUMPDEST PUSH1 0x0 DUP1 REVERT JUMPDEST CALLVALUE DUP1 ISZERO PUSH2 0x94 JUMPI PUSH1 0x0 DUP1 REVERT JUMPDEST POP PUSH2 0xC9 PUSH1 0x4 DUP1 CALLDATASIZE SUB DUP2 ADD SWAP1 DUP1 DUP1 CALLDATALOAD PUSH20 0xFFFFFFFFFFFFFFFFFFFFFFFFFFFFFFFFFFFFFFFF AND SWAP1 PUSH1 0x20 ADD SWAP1 SWAP3 SWAP2 SWAP1 POP POP POP PUSH2 0x229 JUMP JUMPDEST STOP JUMPDEST CALLVALUE DUP1 ISZERO PUSH2 0xD7 JUMPI PUSH1 0x0 DUP1 REVERT JUMPDEST POP PUSH2 0x116 PUSH1 0x4 DUP1 CALLDATASIZE SUB DUP2 ADD SWAP1 DUP1 DUP1 CALLDATALOAD PUSH20 0xFFFFFFFFFFFFFFFFFFFFFFFFFFFFFFFFFFFFFFFF AND SWAP1 PUSH1 0x20 ADD SWAP1 SWAP3 SWAP2 SWAP1 DUP1 CALLDATALOAD SWAP1 PUSH1 0x20 ADD SWAP1 SWAP3 SWAP2 SWAP1 POP POP POP PUSH2 0x26C JUMP JUMPDEST STOP JUMPDEST CALLVALUE DUP1 ISZERO PUSH2 0x124 JUMPI PUSH1 0x0 DUP1 REVERT JUMPDEST POP PUSH2 0x12D PUSH2 0x382 JUMP JUMPDEST PUSH1 0x40 MLOAD DUP1 DUP3 DUP2 MSTORE PUSH1 0x20 ADD SWAP2 POP POP PUSH1 0x40 MLOAD DUP1 SWAP2 SUB SWAP1 RETURN JUMPDEST CALLVALUE DUP1 ISZERO PUSH2 0x14F JUMPI PUSH1 0x0 DUP1 REVERT JUMPDEST POP PUSH2 0x18E PUSH1 0x4 DUP1 CALLDATASIZE SUB DUP2 ADD SWAP1 DUP1 DUP1 CALLDATALOAD PUSH20 0xFFFFFFFFFFFFFFFFFFFFFFFFFFFFFFFFFFFFFFFF AND SWAP1 PUSH1 0x20 ADD SWAP1 SWAP3 SWAP2 SWAP1 DUP1 CALLDATALOAD SWAP1 PUSH1 0x20 ADD SWAP1 SWAP3 SWAP2 SWAP1 POP POP POP PUSH2 0x388 JUMP JUMPDEST STOP JUMPDEST CALLVALUE DUP1 ISZERO PUSH2 0x19C JUMPI PUSH1 0x0 DUP1 REVERT JUMPDEST POP PUSH2 0x1D1 PUSH1 0x4 DUP1 CALLDATASIZE SUB DUP2 ADD SWAP1 DUP1 DUP1 CALLDATALOAD PUSH20 0xFFFFFFFFFFFFFFFFFFFFFFFFFFFFFFFFFFFFFFFF AND SWAP1 PUSH1 0x20 ADD SWAP1 SWAP3 SWAP2 SWAP1 POP POP POP PUSH2 0x479 JUMP JUMPDEST STOP JUMPDEST CALLVALUE DUP1 ISZERO PUSH2 0x1DF JUMPI PUSH1 0x0 DUP1 REVERT JUMPDEST POP PUSH2 0x1E8 PUSH2 0x4BC JUMP JUMPDEST PUSH1 0x40 MLOAD DUP1 DUP3 DUP2 MSTORE PUSH1 0x20 ADD SWAP2 POP POP PUSH1 0x40 MLOAD DUP1 SWAP2 SUB SWAP1 RETURN JUMPDEST CALLVALUE DUP1 ISZERO PUSH2 0x20A JUMPI PUSH1 0x0 DUP1 REVERT JUMPDEST POP PUSH2 0x213 PUSH2 0x4C2 JUMP JUMPDEST PUSH1 0x40 MLOAD DUP1 DUP3 DUP2 MSTORE PUSH1 0x20 ADD SWAP2 POP POP PUSH1 0x40 MLOAD DUP1 SWAP2 SUB SWAP1 RETURN JUMPDEST PUSH1 0x4 PUSH1 0x0 DUP3 PUSH20 0xFFFFFFFFFFFFFFFFFFFFFFFFFFFFFFFFFFFFFFFF AND PUSH20 0xFFFFFFFFFFFFFFFFFFFFFFFFFFFFFFFFFFFFFFFF AND DUP2 MSTORE PUSH1 0x20 ADD SWAP1 DUP2 MSTORE PUSH1 0x20 ADD PUSH1 0x0 KECCAK256 POP POP JUMP JUMPDEST PUSH1 0x0 DUP2 PUSH1 0x0 SLOAD PUSH1 0x2 SLOAD PUSH1 0x1 SLOAD DUP4 MUL ADD GT ISZERO ISZERO ISZERO PUSH2 0x288 JUMPI PUSH1 0x0 DUP1 REVERT JUMPDEST PUSH1 0x1 SLOAD DUP4 MUL SWAP2 POP DUP2 PUSH1 0x3 PUSH1 0x0 DUP7 PUSH20 0xFFFFFFFFFFFFFFFFFFFFFFFFFFFFFFFFFFFFFFFF AND PUSH20 0xFFFFFFFFFFFFFFFFFFFFFFFFFFFFFFFFFFFFFFFF AND DUP2 MSTORE PUSH1 0x20 ADD SWAP1 DUP2 MSTORE PUSH1 0x20 ADD PUSH1 0x0 KECCAK256 PUSH1 0x0 DUP3 DUP3 SLOAD ADD SWAP3 POP POP DUP2 SWAP1 SSTORE POP PUSH2 0x3E8 PUSH1 0x3 PUSH1 0x0 DUP7 PUSH20 0xFFFFFFFFFFFFFFFFFFFFFFFFFFFFFFFFFFFFFFFF AND PUSH20 0xFFFFFFFFFFFFFFFFFFFFFFFFFFFFFFFFFFFFFFFF AND DUP2 MSTORE PUSH1 0x20 ADD SWAP1 DUP2 MSTORE PUSH1 0x20 ADD PUSH1 0x0 KECCAK256 SLOAD DUP2 ISZERO ISZERO PUSH2 0x328 JUMPI INVALID JUMPDEST DIV PUSH1 0x4 PUSH1 0x0 DUP7 PUSH20 0xFFFFFFFFFFFFFFFFFFFFFFFFFFFFFFFFFFFFFFFF AND PUSH20 0xFFFFFFFFFFFFFFFFFFFFFFFFFFFFFFFFFFFFFFFF AND DUP2 MSTORE PUSH1 0x20 ADD SWAP1 DUP2 MSTORE PUSH1 0x20 ADD PUSH1 0x0 KECCAK256 DUP2 SWAP1 SSTORE POP DUP2 PUSH1 0x2 PUSH1 0x0 DUP3 DUP3 SLOAD ADD SWAP3 POP POP DUP2 SWAP1 SSTORE POP POP POP POP POP JUMP JUMPDEST PUSH1 0x1 SLOAD DUP2 JUMP JUMPDEST DUP1 PUSH1 0x3 PUSH1 0x0 DUP5 PUSH20 0xFFFFFFFFFFFFFFFFFFFFFFFFFFFFFFFFFFFFFFFF AND PUSH20 0xFFFFFFFFFFFFFFFFFFFFFFFFFFFFFFFFFFFFFFFF AND DUP2 MSTORE PUSH1 0x20 ADD SWAP1 DUP2 MSTORE PUSH1 0x20 ADD PUSH1 0x0 KECCAK256 PUSH1 0x0 DUP3 DUP3 SLOAD SUB SWAP3 POP POP DUP2 SWAP1 SSTORE POP PUSH2 0x3E8 PUSH1 0x3 PUSH1 0x0 DUP5 PUSH20 0xFFFFFFFFFFFFFFFFFFFFFFFFFFFFFFFFFFFFFFFF AND PUSH20 0xFFFFFFFFFFFFFFFFFFFFFFFFFFFFFFFFFFFFFFFF AND DUP2 MSTORE PUSH1 0x20 ADD SWAP1 DUP2 MSTORE PUSH1 0x20 ADD PUSH1 0x0 KECCAK256 SLOAD DUP2 ISZERO ISZERO PUSH2 0x421 JUMPI INVALID JUMPDEST DIV PUSH1 0x4 PUSH1 0x0 DUP5 PUSH20 0xFFFFFFFFFFFFFFFFFFFFFFFFFFFFFFFFFFFFFFFF AND PUSH20 0xFFFFFFFFFFFFFFFFFFFFFFFFFFFFFFFFFFFFFFFF AND DUP2 MSTORE PUSH1 0x20 ADD SWAP1 DUP2 MSTORE PUSH1 0x20 ADD PUSH1 0x0 KECCAK256 DUP2 SWAP1 SSTORE POP DUP1 PUSH1 0x2 PUSH1 0x0 DUP3 DUP3 SLOAD SUB SWAP3 POP POP DUP2 SWAP1 SSTORE POP POP POP JUMP JUMPDEST PUSH1 0x3 PUSH1 0x0 DUP3 PUSH20 0xFFFFFFFFFFFFFFFFFFFFFFFFFFFFFFFFFFFFFFFF AND PUSH20 0xFFFFFFFFFFFFFFFFFFFFFFFFFFFFFFFFFFFFFFFF AND DUP2 MSTORE PUSH1 0x20 ADD SWAP1 DUP2 MSTORE PUSH1 0x20 ADD PUSH1 0x0 KECCAK256 POP POP JUMP JUMPDEST PUSH1 0x2 SLOAD DUP2 JUMP JUMPDEST PUSH1 0x0 SLOAD DUP2 JUMP STOP LOG1 PUSH6 0x627A7A723058 KECCAK256 0xb4 DUP9 ADD 0xc1 0xc PUSH16 0x653B059B7AECBFFE347B42EA92A13F22 DUP6 0xe5 PUSH28 0xF7C17DC7A5CDA0002900000000000000000000000000000000000000 "
				},
				"gasEstimates": {
					"creation": {
						"codeDepositCost": "253600",
						"executionCost": "45312",
						"totalCost": "298912"
					},
					"external": {
						"buy_giricoins(address,uint256)": "62101",
						"equity_in_giricoins(address)": "380",
						"equity_in_usd(address)": "292",
						"max_giricoins()": "526",
						"sell_giricoins(address,uint256)": "61273",
						"total_giricois_bought()": "504",
						"usd_to_giricoins()": "438"
					}
				},
				"methodIdentifiers": {
					"buy_giricoins(address,uint256)": "135facc1",
					"equity_in_giricoins(address)": "c83b9ab0",
					"equity_in_usd(address)": "10c51c1b",
					"max_giricoins()": "fc627f77",
					"sell_giricoins(address,uint256)": "7600d833",
					"total_giricois_bought()": "f0e1a1c1",
					"usd_to_giricoins()": "17c2d59c"
				}
			},
			"userdoc": {
				"methods": {}
			}
		}
	}
}